:04000000FEEF3FF0E0
:10080000000020EE12F010EE02F0090EDBCFE3FF45
:10081000E806FCE2000E0F6E000E0E6E000E116E6A
:10082000050E106E936A956A8C6A8A6A000E0D6EC8
:10083000000E0C6E3EEF04F0040E8C6E0E50020F94
:10084000D96EDA6ADF508A6E210E016E760EE82EBE
:10085000FED7012EFCD700D0080E8C6E1050020F70
:10086000D96EDA6ADF508A6E210E016E760EE82E9E
:10087000FED7012EFCD700D00C4A0D2A0DBE4AEF40
:1008800004F00D5009E1640E0C5CD8A04AEF04F0AE
:100890004CEF04F01CEF04F00E4A0F2A0FBE5AEF83
:1008A00004F00F5009E10A0E0E5CD8A05AEF04F0D4
:1008B0005CEF04F062EF04F0000E0F6E000E0E6E9F
:1008C000104A112A11BE6EEF04F0115009E1070E13
:1008D000105CD8A06EEF04F070EF04F016EF04F097
:1008E000000E116E000E106E16EF04F0FEEF3FF0DA
:1008F000160EF66E090EF76E000EF86E00EE12F090
:1009000010EE0AF00900F5CFEEFFE550E150FAE1F4
:10091000000101EF04F0FC60DAF266B6BEE0FEF61C
:047FFC0078EF04F026
:020000040030CA
:08000000000C181EFF8181FFB6
:00000001FF
