:04000000FEEF3FF0E0
:100800000000000E046E020E036E000E066E010E56
:10081000056E000E086E000E076E000E0A6E050EC5
:10082000096E000E0C6E040E0B6E000E0E6E030EA3
:100830000D6E93948A9493928A9293908A90939A4D
:100840008A9A93988A9893968A9607C001F0010E27
:10085000026E012A2EEF04F0D8900236012E2CEF02
:1008600004F002508A1205C001F0010E026E012A46
:100870003CEF04F0D8900236012E3AEF04F002501B
:10088000FF0A8A1603C001F0010E026E012A4BEF27
:1008900004F0D8900236012E49EF04F00250FF0A0E
:1008A0008A1609C001F0010E026E012A5AEF04F007
:1008B000D8900236012E58EF04F002508A120DC073
:1008C00001F0010E026E012A68EF04F0D8900236A2
:1008D000012E66EF04F00250FF0A8A160BC001F0E9
:1008E000010E026E012A77EF04F0D8900236012E35
:1008F00075EF04F00250FF0A8A16B20E026E8F0ED8
:10090000016E130EE82EFED7012EFCD7022EFAD769
:10091000000005C001F0010E026E012A92EF04F002
:10092000D8900236012E90EF04F002508A1203C0D4
:1009300001F0010E026E012AA0EF04F0D8900236F9
:10094000012E9EEF04F00250FF0A8A1607C001F044
:10095000010E026E012AAFEF04F0D8900236012E8C
:10096000ADEF04F00250FF0A8A1609C001F0010E33
:10097000026E012ABEEF04F0D8900236012EBCEFC1
:1009800004F002508A120DC001F0010E026E012A1D
:10099000CCEF04F0D8900236012ECAEF04F00250DA
:1009A000FF0A8A160BC001F0010E026E012ADBEF6E
:1009B00004F0D8900236012ED9EF04F00250FF0A5D
:1009C0008A161A0E026E5E0E016E6E0EE82EFED7AD
:1009D000012EFCD7022EFAD700D003C001F0010E81
:1009E000026E012AF6EF04F0D8900236012EF4EFE1
:1009F00004F002508A1207C001F0010E026E012AB3
:100A000004EF05F0D8900236012E02EF05F00250F7
:100A1000FF0A8A1605C001F0010E026E012A13EFCB
:100A200005F0D8900236012E11EF05F00250FF0AB2
:100A30008A160DC001F0010E026E012A22EF05F0A8
:100A4000D8900236012E20EF05F002508A1209C01C
:100A500001F0010E026E012A30EF05F0D890023647
:100A6000012E2EEF05F00250FF0A8A160BC001F08E
:100A7000010E026E012A3FEF05F0D8900236012EDA
:100A80003DEF05F00250FF0A8A16B20E026E8F0E7D
:100A9000016E130EE82EFED7012EFCD7022EFAD7D8
:100AA000000003C001F0010E026E012A5AEF05F0AA
:100AB000D8900236012E58EF05F002508A1207C076
:100AC00001F0010E026E012A68EF05F0D89002369F
:100AD000012E66EF05F00250FF0A8A1605C001F0EC
:100AE000010E026E012A77EF05F0D8900236012E32
:100AF00075EF05F00250FF0A8A160BC001F0010ED7
:100B0000026E012A86EF05F0D8900236012E84EF9E
:100B100005F002508A1209C001F0010E026E012A8E
:100B200094EF05F0D8900236012E92EF05F00250B6
:100B3000FF0A8A160DC001F0010E026E012AA3EF12
:100B400005F0D8900236012EA1EF05F00250FF0A01
:100B50008A161A0E026E5E0E016E6E0EE82EFED71B
:100B6000012EFCD7022EFAD700D025EF04F0FEEFBD
:080B70003FF0000101EF04F069
:047FFC00B9EF05F0E4
:020000040030CA
:0E000000000C181EFF8181FF0FC00FE00F40A3
:00000001FF
