:04000000FEEF3FF0E0
:100800000000936A8A6A300E8A6EB20E026E8F0EF4
:10081000016E130EE82EFED7012EFCD7022EFAD75A
:100820000000500E8A6E1A0E026E5E0E016E6E0E83
:10083000E82EFED7012EFCD7022EFAD700D0840E68
:100840008A6EB20E026E8F0E016E130EE82EFED768
:10085000012EFCD7022EFAD70000880E8A6E1A0EDF
:10086000026E5E0E016E6E0EE82EFED7012EFCD7D4
:10087000022EFAD700D003EF04F0FEEF3FF00001A4
:0408800001EF04F090
:047FFC003FEF04F05F
:020000040030CA
:0E000000000C181EFF8181FF0FC00FE00F40A3
:00000001FF
