:04000000FEEF3FF0E0
:10080000000020EE0FF010EE03F0090EDBCFE3FF47
:10081000E806FCE2936A8A6A000E0E6E000E0D6E08
:100820000D50030FD96EDA6ADF508A6E1A0E026E0F
:100830005E0E016E6E0EE82EFED7012EFCD7022E44
:10084000FAD700D00D4A0E2A0EBE30EF04F00E503B
:1008500009E10A0E0D5CD8A030EF04F032EF04F08D
:1008600010EF04F00CEF04F0FEEF3FF0920EF66E86
:10087000080EF76E000EF86E00EE0FF010EE0AF0A4
:100880000900F5CFEEFFE550E150FAE1000101EF7C
:0C08900004F0FC60DAF266B6BEE0FEF692
:047FFC0036EF04F068
:020000040030CA
:08000000000C181EFF8181FFB6
:00000001FF
