:04000000FEEF3FF0E0
:10080000000020EE20F010EE0AF0090EDBCFE3FF2F
:10081000E806FCE20B0E1F6E3B0E1D6E320E1E6EC6
:10082000010E146E936A956A8C6A8A6A1EC001F082
:10083000026A000E046E0A0E036E61EC05F00150B0
:10084000156E1EC001F0026A000E046E0A0E036EE1
:1008500000EC05F00150166E1DC001F0026A000E9A
:10086000046E0A0E036E61EC05F00150176E1DC098
:1008700001F0026A000E046E0A0E036E00EC05F031
:100880000150186E1FC001F0026A000E046E0A0EBD
:10089000036E61EC05F00150196E1FC001F0026A91
:1008A000000E046E0A0E036E00EC05F001501A6E85
:1008B000000E1C6E000E1B6E800E8C6E15500A0F03
:1008C000D96EDA6ADF508A6E060E096E840EE82E43
:1008D000FED7092EFCD7400E8C6E16500A0FD96E2B
:1008E000DA6ADF508A6E060E096E840EE82EFED795
:1008F000092EFCD7200E8C6E17500A0FD96EDA6ABB
:10090000DF508A6E060E096E840EE82EFED7092E81
:10091000FCD7100E8C6E18500A0FD96EDA6ADF50B1
:100920008A6E060E096E840EE82EFED7092EFCD7BD
:10093000080E8C6E19500A0FD96EDA6ADF508A6E73
:10094000060E096E300EE82EFED7092EFCD700D019
:10095000040E8C6E1A500A0FD96EDA6ADF508A6E56
:10096000060E096E300EE82EFED7092EFCD700D0F9
:100970001B4A1C2A1CBEC6EF04F01C5009E1C80E1D
:100980001B5CD8A0C6EF04F0C8EF04F05CEF04F0E5
:100990001E2A3C0E1E18D8A4D0EF04F0D2EF04F0AB
:1009A000D4EF04F01E6A1D2A3C0E1D18D8A4DBEFFC
:1009B00004F0DDEF04F0DFEF04F01D6A1F2A14508D
:1009C000D8B4E5EF04F0E7EF04F0F3EF04F00C0E19
:1009D0001F18D8A4EEEF04F0F0EF04F016EF04F0C7
:1009E0001F6A16EF04F0180E1F18D8A4FAEF04F0CF
:1009F000FCEF04F016EF04F0F0EF04F0FEEF3FF030
:100A0000066A04BE08EF05F006EF05F00EEF05F0EC
:100A1000036C041ED8B0042A010E066E02BE15EF48
:100A200005F013EF05F01BEF05F0016C021ED8B0C6
:100A3000022A010E061A000E086E000E076E035001
:100A40000410D8B426EF05F028EF05F050EF05F0BC
:100A5000010E056E30EF05F0D89003360436052AF6
:100A600004AE35EF05F037EF05F02CEF05F0D89028
:100A7000073608360350015C04500258D8A043EFF3
:100A800005F045EF05F04AEF05F00350015E045014
:100A9000025A0780D89004320332052E37EF05F052
:100AA0000650D8B456EF05F058EF05F05CEF05F0AE
:100AB000076C081ED8B0082A07C001F008C002F071
:100AC0001200066A02BE69EF05F067EF05F06FEFEE
:100AD00005F0016C021ED8B0022A010E066E04BE9B
:100AE00076EF05F074EF05F07AEF05F0036C041E65
:100AF000D8B0042A03500410D8B481EF05F083EF76
:100B000005F0A7EF05F0010E056E8BEF05F0D8900C
:100B100003360436052A04AE90EF05F092EF05F097
:100B200087EF05F00350015C04500258D8A09BEFFA
:100B300005F09DEF05F0A1EF05F00350015E0450B4
:100B4000025AD89004320332052E92EF05F0065077
:100B5000D8B4ADEF05F0AFEF05F0B3EF05F0016CE1
:100B6000021ED8B0022A01C001F002C002F0120039
:100B7000960EF66E0B0EF76E000EF86E00EE20F07D
:100B800010EE0AF00900F5CFEEFFE550E150FAE172
:100B9000000101EF04F0FC60DAF266B6BEE0FEF69A
:047FFC00B8EF05F0E5
:020000040030CA
:08000000000C181EFF8181FFB6
:00000001FF
