:04000000FEEF3FF0E0
:10080000000020EE1AF010EE02F0090EDBCFE3FF3D
:10081000E806FCE2000E116E000E106E000E136E64
:10082000000E126E000E156E000E146E000E176E86
:10083000000E166E000E196E000E186E000E0F6E72
:10084000000E0E6E936A956A8C6A8A6A000E0D6EAF
:10085000000E0C6E8CEF04F0800E8C6E1050020FA8
:10086000D96EDA6ADF508A6E070E016E7D0EE82EB1
:10087000FED7012EFCD70000400E8C6E1250020FE6
:10088000D96EDA6ADF508A6E070E016E7D0EE82E91
:10089000FED7012EFCD70000200E8C6E1450020FE4
:1008A000D96EDA6ADF508A6E070E016E7D0EE82E71
:1008B000FED7012EFCD70000100E8C6E1650020FD2
:1008C000D96EDA6ADF508A6E070E016E7D0EE82E51
:1008D000FED7012EFCD70000080E8C6E1850020FB8
:1008E000D96EDA6ADF508A6E040E016E3E0EE82E73
:1008F000FED7012EFCD7040E8C6E0E50020FD96E5F
:10090000DA6ADF508A6E040E016E3E0EE82EFED7C4
:10091000012EFCD70C4A0D2A0DBE98EF04F00D50A5
:1009200009E1C80E0C5CD8A098EF04F09AEF04F02F
:100930002CEF04F0104A112A11BEA8EF04F0115058
:1009400009E10A0E105CD8A0A8EF04F0AAEF04F0A9
:10095000B0EF04F0000E116E000E106E124A132A52
:10096000060E12181310D8A4B8EF04F0BAEF04F072
:10097000C0EF04F0000E136E000E126E144A152A1A
:10098000090E14181510D8A4C8EF04F0CAEF04F02B
:10099000D0EF04F0000E156E000E146E164A172AE2
:1009A000060E16181710D8A4D8EF04F0DAEF04F0EA
:1009B000E0EF04F0000E176E000E166E184A192AAA
:1009C000060E18181910D8A4E8EF04F0EAEF04F0A6
:1009D000F0EF04F0000E196E000E186E0E4A0F2A8A
:1009E000060E18181910D8A4F8EF04F0FAEF04F066
:1009F00026EF04F0000E0F6E000E0E6E26EF04F0D0
:100A0000FEEF3FF02A0EF66E0A0EF76E000EF86E3D
:100A100000EE1AF010EE0AF00900F5CFEEFFE550F7
:100A2000E150FAE1000101EF04F0FC60DAF266B691
:040A3000BEE0FEF630
:047FFC0002EF05F09B
:020000040030CA
:08000000000C181EFF8181FFB6
:00000001FF
